:1000000080590020653F0000D1AF0100513F000042
:10001000513F0000513F0000513F00000000000030
:10002000000000000000000000000000654000002B
:10003000513F00000000000031400000513F00002F
:1000400021420000650E0200214200002142000012
:100050002142000021420000214200002142000014
:100060002142000021420000214200002142000004
:1000700021420000214200002142000021420000F4
:1000800021420000214200002142000021420000E4
:1000900021420000214200002142000021420000D4
:1000A00021420000214200002142000021420000C4
:1000B00021420000214200002142000021420000B4
:1000C00021420000214200002142000021420000A4
:0C00D000214200002142000021420000FB
:0400DC00FFFFFFFF24
:1000E0007BB972B90029BEBF00204FF0004106E085
:1000F00008BF00281CBF6FF000414FF0FF3000F038
:1001000057B8ADF1080C6DE904CE002909DB002BCE
:100110001ADB00F04FF8DDF804E0DDE9022304B05B
:100120007047404261EB4101002B1BDB00F042F8BD
:10013000DDF804E0DDE9022304B0404261EB410157
:10014000524263EB43037047524263EB430300F0B8
:1001500031F8DDF804E0DDE9022304B0404261EB50
:1001600041017047524263EB430300F023F8DDF88E
:1001700004E0DDE9022304B0524263EB430370471D
:1001800053B94AB9002908BF00281CBF4FF0FF31FE
:100190004FF0FF3000F00CB8ADF1080C6DE904CE63
:1001A00000F008F8DDF804E0DDE9022304B0704750
:1001B000704700BF2DE9F04786468C460846089EEA
:1001C000154674461946002B40F0C2808542B2FAAB
:1001D00082F245D94AB1C2F1200300FA02FC2EFA9C
:1001E00003F3954043EA0C0C94404FEA154EA8B235
:1001F000BCFBFEF8230C0EFB18CC08FB00F943EA0D
:100200000C43994528D9EB1808F1FF3704D29945DA
:1002100002D9A8F102072B44A3EB0903A4B2B3FB54
:10022000FEFC0EFB1C330CFB00F044EA0344A0422E
:1002300014D92C190CF1FF3304D2A04202D9ACF12D
:1002400002032C44241A43EA07401EB1D440002381
:1002500034607360BDE8F0874746DDE76346F1E749
:1002600092BB431B01214FEA154EAFB2B3FBFEFC1C
:10027000200C0EFB1C330CFB07F840EA03439845A7
:1002800062D9EB180CF1FF3004D2984502D9ACF1D9
:1002900002002B44A3EB0803A4B2B3FBFEFC0EFB4D
:1002A0001C330CFB07F744EA0344A7424ED92C1930
:1002B0000CF1FF3304D2A74202D9ACF102032C4463
:1002C000E41B43EA0040C0E7C2F1200320FA03F137
:1002D000954090402EFA03F303434FEA154EAFB218
:1002E000B1FBFEFC0EFB1C10190C0CFB07F841EADD
:1002F0000041884504FA02F422D969180CF1FF3054
:1003000004D2884502D9ACF102002944A1EB0801CE
:100310009BB2B1FBFEFC0EFB1C110CFB07F743EA82
:1003200001439F420ED9EB180CF1FF3104D29F42DA
:1003300002D9ACF102012B44DB1B41EA004192E7F8
:100340006046E3E76146F7E76046A3E76346B7E741
:10035000834206D916B9002108467BE7C6E900E0CA
:10036000F9E7B3FA83F78FB9834201D3724508D80E
:10037000BEEB020460EB030301209C461EB9002182
:1003800068E73846FAE7C6E9004CF8E7C7F1200C01
:10039000BB4022FA0CF41C432EFA0CF120FA0CF3A9
:1003A000B84001434FEA14490EFA07F5B3FBF9F8D8
:1003B0001FFA84FE09FB18300B0C08FB0EFA43EA07
:1003C00000439A4502FA07F240D9E31808F1FF30DA
:1003D00004D29A4502D9A8F102002344A3EB0A03F0
:1003E00089B2B3FBF9F809FB183308FB0EFE41EAAA
:1003F00003418E452CD9611808F1FF3304D28E4594
:1004000002D9A8F10203214443EA0040A0FB02986C
:10041000A1EB0E014145CE46434602D306D14D45E0
:1004200004D2B9EB020E68EB04030138002EA6D00B
:10043000B5EB0E0261EB030101FA0CFC22FA07F3A3
:100440004CEA0303F940C6E9003198E74046C5E7A6
:100450004346D9E7000000002DE9F04F054687B07C
:10046000214FBB68029304AA5B6800213846984775
:10047000002832DBDDE9044A1C4BDFF87480A4FB62
:1004800003B203FB0A230393039915A3D3E90023C3
:100490005846FFF775FE4FF0FF39039BD94578EBBF
:1004A0000303064619D3A5FB04B405FB0A440CA3B9
:1004B000D3E9002321465846FFF762FED94578EB81
:1004C0000404034609D3864207D301220092029A0C
:1004D0000021146838463246A04707B0BDE8F08FC7
:1004E00000CA9A3B00000000EC28020090D00300F4
:1004F000FFC99A3B0000000073B5002101AA40F635
:10050000034004F067FF0446002865D10198C368E2
:100510001B788BB9BFF35B8FC64B1A68BFF35B8F39
:1005200002F00902BFF35B8F53E8001F43E8002489
:10053000002CF9D1BFF35B8F14F046FC01AA002117
:1005400041F2030004F046FF0446002844D1019D17
:10055000B948E968082201311AF030FE284614F043
:1005600033FC214601AA41F2010004F033FF0446A6
:1005700090BB0198B14DC3685A7885F870205A88AD
:10058000A5F872201A7985F87120B3F80720A5F82C
:100590007420B3F80530A5F8763014F015FC214628
:1005A00001AA41F2020004F015FF0446A0B9019E21
:1005B000F1684022013105F180001AF0FFFD05F1DC
:1005C00080001AF06CFE304614F0FEFB95F87C308B
:1005D0005A0604D46FF01204204602B070BD2146C2
:1005E00001AA42F2030004F0F5FE04460028F3D10C
:1005F000019EF1680822013105F1D8001AF0DEFDF4
:10060000304614F0E1FB214601AA42F2020004F058
:10061000E1FE04460028DFD1019CE368B3F8012025
:1006200091B249B1D97839B1A5F80421DA781146E7
:1006300005F5847021F066FD204614F0C5FB95F8A1
:100640007C601F2316F02006A5F8203118D1022166
:1006500040F66D4004F024FD0446002800F0E680DA
:1006600002210C3020F0B5FF0123037046702146B3
:10067000324640F66D4004F0ADFE04460028ABD192
:1006800095F89C301B0712D501AA002142F21C00EC
:1006900004F0A0FE044600289ED10198C368D3F858
:1006A0000120D3F80530C5E9382314F08DFB95F807
:1006B000D8309E0624D50DF1020168461BF096F94C
:1006C0000446002888D1042142F2240004F0E8FC0A
:1006D0000646002800F0AA8004210C3020F079FFA3
:1006E000BDF800300380BDF8023043802246314619
:1006F00042F2240004F06EFE044600287FF46CAF42
:1007000095F8D8305C062AD5022142F22E0004F07A
:10071000C7FC0446002800F0898002210C3020F03C
:1007200058FFB5F8B03103802146002242F22E0076
:1007300004F050FE044600287FF44EAF014601AAA3
:1007400042F22A0004F046FE044600287FF444AF3B
:100750000198C3685B7885F8223114F035FB0821D5
:1007600042F2010004F09CFC044600285ED00821FF
:100770000C3020F02EFF95F8D81011F0400F0246F3
:1007800040F2022308BF032388074CBF43F02C002C
:1007900043F00C008B0695F8D93048BF40F040007C
:1007A00013F0090F95F8A23018BF40F4006003F071
:1007B0000603CE0748BF40F01000062B08BF40F4E8
:1007C000C07000211AF00DFF2146002242F2010004
:1007D00004F000FE044600287FF4FEAE95F87C305D
:1007E000B5F8041198062DD4C9B901AA41F2050043
:1007F00004F0F0FD044600287FF4EEAEB5F80431B5
:10080000019C4BB9E368B3F80120A5F804219A884C
:100810000B48114621F076FC204614F0D5FA082149
:1008200040F6014004F03CFC044680B96FF06804D7
:10083000D2E600BF34010020D80000206000002074
:10084000680100200029EAD16FF00404C4E6082101
:100850000C3020F0BEFE95F8D830D907024657D4A8
:100860002F484FF000511AF0BCFE2146002240F6FE
:10087000014004F0AFFD044600287FF4ADAE014610
:1008800001AA4FF6014004F0A5FD044648BB0198BB
:1008900014F09AFA214601AA4FF6024004F09AFD9C
:1008A0000446F0B9019E1F48F168022201311AF096
:1008B00085FC304614F088FA95F8C1305B0710D5F6
:1008C00001AA21464FF6034004F084FD48B9019C7B
:1008D0001548E168012211441AF070FC204614F01A
:1008E00073FA05F08DFC044600287FF475AE06F01F
:1008F0006FFE044600287FF46FAEEB79002B3FF4C7
:100900006BAE082109481AF0E9FD04F0A7FC63E684
:1009100001A1D1E90001A6E7908800020080002033
:100920001088000221010020200100203401002055
:100930002DE9F0470F46D0E906A1D0F82090DFF866
:10094000688001EB09043034A245164614A3D3E9AC
:10095000002314D8A1FB0801FFF712FC10A3D3E970
:100960000023A4EB0A0420F07F45A4FB0801FFF755
:1009700007FC20F07F403D603060BDE8F087AAFBB7
:100980000801FFF7FDFB20F07F4509F1300004A3CB
:10099000D3E90023A0FB0801E9E700BFAFF3008023
:1009A0008D49FD1A0700000000CA9A3B00000000B4
:1009B0002DE9F04F8DB020B90DB0BDE8F04F0DF02E
:1009C000ADBCC74D95F86A4014F0010440F0558164
:1009D00095F82500FF2300F0030085F8263011F07C
:1009E000C3F995F86A0041070DD5224605F16B0160
:1009F000C0F3C00011F018FBFF2885F8260002D0D4
:100A0000204611F0CBF995F8293005EB8303DF6A16
:100A100095F8353005EB8303D3F838A057B1B048CB
:100A200039461EF0BFFB3B785A060ED4AC485146FF
:100A30001EF0B8FB3B7813F00E0F40F09F802B6A3E
:100A400053B10C200DB0BDE8F08F06211DF004FF5E
:100A50000028EBD11220F5E70BF05CF8804630B1AE
:100A60000BF0CAF8814620B940460BF059F8072030
:100A7000E8E70DF089FE044618B948460BF0C2F8C5
:100A8000F2E74FF6FF730385D0F8883000F11C0BB6
:100A90001BB900F18003C0F8883004F17C0204F136
:100AA0007801D4F888001DF0E2FE94F88E3023F02F
:100AB000070384F88E30B4F8763023F4EF6323F024
:100AC000070343F48C7343F00103A4F8763094F8E1
:100AD000393003F03F0363F07F0384F8393094F832
:100AE0003C3023F00703002684F83C304FF4C02349
:100AF000C4F888312046C4E91266C4F88860A4F8B6
:100B00008C60E685266384F83B602665A4F88E61D8
:100B1000A4F884611FF0C1F984F85061C4F85481CD
:100B20000DF08CFF94F8943160F3020384F8943153
:100B30000DF08AFF94F8943160F3C50384F8943182
:100B400094F8803166F3410384F880310121204616
:100B50000EF084F904F1D4001FF07FF8C5E918897C
:100B6000C5F820B0C4E905662670E46112F0DCFA2D
:100B700020B15B480DF02AF9032063E795F8243093
:100B80000121C3F342030DF12B008DF82B301DF032
:100B90009AFE0246002800F094809AF80110384628
:100BA0001EF0B1FA002431234E492C70C5E90234FD
:100BB0004D4B6C60A0FB0101C01841F1070146A339
:100BC000D3E90023C5E90544FFF7DAFAB5F8686010
:100BD00028611EF083F900F109082EB93C7804F071
:100BE0000F04631E5C425C4195F824702B693F4AF8
:100BF000DFF8FCA03F4964F3000785F824704FF04C
:100C0000020917F001070BACCDF82C9037D000206B
:100C10001060CDE90431CDE90842CDE9000303219C
:100C2000CDE9065ACDE9020043464A461EF01CF9BA
:100C300021460BF031FA002843D12F4A06954AF29B
:100C4000D833CDE904020093CDE907A4CDE9020031
:100C50000190434601220321CDF82C901EF00BF9A0
:100C600021460BF019FA60BB95F86A30012043F079
:100C7000010385F86A3011F057F80020E2E603F22C
:100C8000471010601D48CDE904314FF0910CA6FBD0
:100C900000014FF6FF73CDE90842CDE902730CFB6A
:100CA00006110DA3D3E90023CDE9065AFFF768FA30
:100CB0004346CDE900704A46032138461EF0D4F879
:100CC000CEE72B6A002B3FF4BCAE05480DF07EF852
:100CD000B7E600BFAFF300808D49FD1A07000000A2
:100CE0003421002000CA9A3B8C49FD1A282100209B
:100CF00009BB0000E1DF0000C1DC0000002AE7843E
:100D000070B590F824308AB0C3F342030D46044610
:100D100001210DF1230016468DF823301DF0D3FD7F
:100D20007178024628461EF0EEF91D49A0FB0131FC
:100D30001C48181841F1070117A3D3E90023FFF756
:100D40001FFA216905468D4220D2481B0021164A10
:100D500002230993A21A7423B2FBF3F2134B0593F7
:100D600009AE00230232CDE90110CDE9033303219E
:100D700006960093D2B218461EF098F831460BF052
:100D80008BF938B9256100200AB070BDFBD9691A0A
:100D90000020DCE70C20F7E78D49FD1A0700000072
:100DA00000CA9A3B8C49FD1A3421002009BB00007F
:100DB0002DE9F04F06468BB08A4601200221994664
:100DC000154613F033FE002202218046012009F06F
:100DD00001FF30460DF0E4FCC71CFFB2364B009615
:100DE0003A46012100200AF029FD10F0FD0F0ED037
:100DF000324A3349334840F6320318F02FFA0023C1
:100E000083F31188BFF36F8F0323184602DF2E4C44
:100E1000A5FB044526A3D3E9002320462946FFF776
:100E2000AFF92A4B0896CDE90663294B0593336940
:100E300004934FF6FE730393264B20F07F46A6FBE8
:100E400003310722E01A02FB061165EB01014FF4A2
:100E50007A720023FFF794F94FF0000BCDE901609F
:100E6000CDF800A04B463A46012158461EF003F843
:100E700010F0FD0F0DD0114A1149124840F64703FA
:100E800018F0ECF98BF31188BFF36F8F032318462A
:100E900002DFB8F1000F07D00122022110460BB08B
:100EA000BDE8F04F09F096BE0BB0BDE8F08F00BF73
:100EB0008D49FD1A0700000029E700008A41020061
:100EC00033420200C13A020000CA9A3BC9E6000060
:100ED000A91701008D49FD1A2DE9F0438468228D80
:100EE0004FF6FF739A428DB0804600F0A7802046EF
:100EF0001FF05BF998F81430012B2ED0022B32D062
:100F00000BBB94F88E3003F01803182B1BD1A18D66
:100F1000B4F886218B1D9A42C4BF931F5B1AB4F8A4
:100F20008211CCBF9BB21346994208D0A4F88231FB
:100F3000B4F88231A4F88431A4F8882103E0B4F82D
:100F40008831002BF4D094F8507187B1394620468F
:100F50000DB0BDE8F0430DF00BBE0023A4F88831BE
:100F6000A4F88431EFE73D2384F85031EBE7E58DB9
:100F7000268E5DB335440023CDE90A33B8F810302E
:100F8000ADB2DBB194F93930002B14DA40460AAA2D
:100F90000BA904F1D409FFF7CBFC48461EF098FEDC
:100FA00010B9FF200DF0B2FD48461EF091FE02463A
:100FB00070B1002323860023A4F88A3198F81230F8
:100FC000D90711D50023A4F88E3115E0751CD2E79E
:100FD000D4E91E011DF060FC0028EAD194F83C30F1
:100FE0005807E8D5A38DE5E7B4F88A314BB3AB4297
:100FF00020D95B1BA4F88A31B4F88E317BB1AB42A7
:101000003ED95B1B9BB20022062BA4F88E312286B0
:1010100004D994F93930934201DA26B301270DF14E
:101020002702294620460EF071FD74302AD19DF822
:10103000271000E03E2120460DF09AFD0DB0BDE8DE
:10104000F083B4F88E31002BD6D1628D40F2E243AA
:101050005A43B4F88C3142F2107101FB0323013B77
:10106000B3FBF2F3AFE7D4F878215308D20702D4E8
:10107000C4F87831D3E743F00043C4F87831CDE7C2
:101080000821D8E7B4F88831A3B1AB4203D95B1B80
:10109000A4F888310EE00AF09FFF0146002850D0E6
:1010A0000023A4F88831238DC3801B2303710068BB
:1010B0001DF05AFFB4F8843123B1AB4243D95B1B16
:1010C000A4F88431238E0FB99E4243D05E1CB6B281
:1010D00094F8D13013F001013ED1DDE90A23002B51
:1010E0007DD10AB9002E77D000210D460B46228D06
:1010F0003F48D4F81C80019103320A990091CDE950
:101100000470CDE90256CDF81880D2B2012100203A
:101110001DF0CCFE10F0FD0F90D00AF0E5FF8045E9
:101120008CD0344A344935484FF4A36318F096F80C
:10113000002383F31188BFF36F8F0323184602DF68
:101140007CE70123A4E70023A4F8843120461EF0A5
:1011500010FFB7E73E46BBE76FF3000384F8D130DA
:1011600094F93930002B2EDA94F87700012100F041
:1011700007001FF0BFFEB4F86E20B4F86C30DFF843
:1011800080C0204D134403F2D51318440721E0FB1F
:101190000C5115A3D3E900232846FEF7F1FF25697A
:1011A000DDE90A2320F07F40854235BF411B2D1A1F
:1011B000002500212061002B99D10A4397D1002DF1
:1011C00090D0194693E794F87600C0F3C00100F080
:1011D00007001FF08DFECEE7002F85D12EE70D46CC
:1011E00085E700BFAFF300808D49FD1A07000000BE
:1011F00085E600008A410200AB420200C13A0200CB
:1012000000CA9A3B8C49FD1A2DE9F04F85B004467F
:10121000BDF844900393CDE90112BDF838A01EF04B
:1012200032FAA368D4F80C61A0EB0905002B8346C1
:10123000ADB209DAE168626823F0004391422CBF45
:101240007618B618A360F61A638D634F13FB05F387
:101250009BB2B3FBFAF11AFB01F080B283421FFA92
:1012600081F840F2E24280F09480C01A5043A0FB23
:10127000070157A3D3E90023FEF782FF20F07F4048
:101280000644E38DB4F814211344994494F839309A
:10129000A9EB0B09C14440F2E24BDB09A4F82E9004
:1012A0000BFB0AF900F08280226CA36C02FB153361
:1012B000A3641FF053FE054694F87401C0F3420086
:1012C00011F080FF029A454B05440BFB02F22265A8
:1012D00009FB05F50022C4F87C2105F57425A26CF4
:1012E00005F23F25B5FBF3F54FEA590305FB08F07E
:1012F000963B0244256463649A4294BFA264A3644B
:10130000A0FB070132A3D3E90023FEF739FF039BBB
:10131000361AB3FBFBF00BFB00F0A0FB07012CA37C
:10132000D3E90023FEF72CFFA9EB050520F07F474A
:10133000BDF83C30A385BDF84030A4F88C31494657
:101340002046A4F82AA00EF01BFCA18D244A881D7B
:101350004A44B2FBF9F293B29842A4F886313EBFF8
:101360005B1A063B9BB2A4F88231019B13B10023A8
:10137000A4F88E3133462A4639462046FFF718FD39
:1013800094F8803143F0010384F8803105B0BDE862
:10139000F08F0AFB113080B25043A0FB07010CA371
:1013A000D3E90023FEF7ECFE361A6AE70D4A0E4930
:1013B0000E4840F6BD0317F051FF002787F3118850
:1013C000BFF36F8F0323184602DF4D46B0E700BF1F
:1013D0008D49FD1A0700000000CA9A3B40420F00E9
:1013E0007FC3C9018A4102002B4D0200C13A0200AD
:1013F0002DE9F04F0B681668D3F800A0037F95B075
:101400000F46C3F3801300F11E010446154612A8CF
:1014100006228DF83F3019F0D1FE97F811B0BBF1DC
:10142000FF0F57D010AA0DF13F01584610F0E2FB14
:101430009DF83F3002338DF83F302146032251F8AA
:101440002E3B0B9305F1080019F0B8FE2B1D184632
:10145000042204F12A0105F118080C9319F0AEFEDC
:10146000052204F13A01404619F0A8FE0521404644
:101470001DF029FA6B7F00F03F0060F305036B77E6
:1014800094F83F30C3F30402AA77A28EEA810128C0
:1014900003F01F0391B205D91B3303F01F030B2B7D
:1014A00000D8E9B90022CAF8142095F820300B982A
:1014B00062F3000385F82030E56801262146267195
:1014C0000AF05EFD28682E7129461DF04DFD15B00D
:1014D000BDE8F08F062212A910A819F06FFEACE744
:1014E0003B6800215960E38E2B82638EB5F80E8035
:1014F0000C9330461EF010FD94F83F3096F874219E
:101500005B0963F3430286F874211FF027FD0D90F9
:1015100096F87401C0F3420011F054FE0D9B40F2A6
:10152000E24909FB08F8184408FB00F000F57420B4
:10153000AF4B00F23F20B0FBF3F04FEA5803963B6D
:101540006862AB6294F8313009FB03F3AB63238F1D
:10155000A6F88C31414630460EF012FBA54BC6F87A
:101560009031A54B4344B3FBF8F39AB2A6F8862119
:10157000298A881D82421346C1BFC1F57F43FA33D1
:10158000D21892B2A6F882210422A91806F5BC70DE
:1015900019F014FE234613F81C9FDA07C9F340190B
:1015A0000DD5964A96499748F82317F057FE002321
:1015B00083F31188BFF36F8F0323184602DF4FF4C4
:1015C0008073A3839AF8260010F058FF0146062284
:1015D00004F12B00002900F0008104F1240119F02E
:1015E000EDFDBBF1FF0F04F125004FF0060200F006
:1015F000F78012A919F0E2FD9DF83F30A37706228B
:1016000010A904F11F0019F0D9FDEB8963862B8A1C
:10161000A386B6F88C31E38696F87431C3F342039F
:1016200084F8383030460DF0BBF8A881E080D7F858
:1016300004B00B9821460AF0A3FCAB89ABF8063046
:101640001C23DBF800408BF80430B9F1000F09D0FF
:101650006B7F43F040036B77281D1FF0C6FB4FF0F4
:101660000109E8838BF81C90594620461DF07CFC4C
:1016700095F85B00B5F85090B5F85240012100F0A4
:1016800007001FF037FC834604EB0900DFF878C140
:101690005E4C00F2D51058440721E0FB04C14FF026
:1016A000000931236046C6E90193C6F80C904EA3A9
:1016B000D3E90023FEF764FD20F07F403061F96834
:1016C0000C9A6D6A40F2E2430120A8EB050503FB8A
:1016D00002184A46022109F07DFA50460CF0FCFD42
:1016E00008F2B248A8EB0B083FA3D3E900238346D6
:1016F000A8FB0401FEF744FDBB684549009120F0BA
:101700007F483A3B0BF102024344D2B20121CDF8AB
:1017100004A048460AF0CCF8514610F027F89AF891
:101720002430DB0707D50122CDF800904B46114647
:1017300048460AF083F830460DF032F8A5FB045411
:1017400029A3D3E90023814621462846FEF718FD48
:10175000BB68A3F13A0A40F2D11308932D4BCDE9AF
:1017600006632D4B0593336904932C4B20F07F4681
:10177000A6FB03310722E81A02FB061164EB010104
:1017800009F103074FF47A724FF000090023CDF8F6
:101790000C90FEF7F5FCFFB2CDE90160CDF80080BA
:1017A00053463A46012148461DF065FB10F0FD0FF7
:1017B0000DD0124A1A4913484FF4E97317F04EFD41
:1017C00089F31188BFF36F8F0323184602DF0122CC
:1017D0000221104609F0FEF979E619F0FAFC00E75B
:1017E000002119F0F6FC07E78D49FD1A07000000FB
:1017F00040420F00404B4C007FC3C901B24602007B
:101800007B3F0200C13A02008C49FD1A00CA9A3B94
:101810006D1701003D170100A91701008D49FD1A40
:1018200033420200000000002DE9F04F8FB0DFF8D6
:10183000D8800B900DF137010DF136001DF09BFBA8
:10184000324F9DF836A09DF837B01DF047FBD8F811
:1018500000400A90A4FB075429A3D3E900230026E3
:1018600021462846FEF78CFC0B9B0693CDE90766C4
:10187000274B05938146D8F8040021A3D3E9002320
:10188000A0FB0701FEF77CFC224B29F07F47A7FB5A
:10189000033120F07F400722CDE9036002FB0711EE
:1018A000E81A64EB01014FF47A720023FEF768FC3A
:1018B0000A9B0096CDE901705A46032150461DF05F
:1018C000DAFA10F0FD0416D1134A1448002316F07A
:1018D000C7F968B19DF837209DF83600009423467B
:1018E000032109F0ABFF6FF073000FB0BDE8F08F7C
:1018F000D8F80C00F9E76FF08B00F6E7AFF3008043
:101900008D49FD1A070000003827002000CA9A3BC5
:10191000E92601008D49FD1A447B0B002027002099
:1019200038B50F4D04461DF0D9FAA9681DF0D8FA54
:101930006968B0FBF4F404440A4807A3D3E9002320
:10194000A1FB0001FEF71CFC20F07F40844294BF05
:101950000020012038BD00BF8D49FD1A070000009E
:101960003827002000CA9A3BF7B5C468636805466B
:101970005BB193F820309A0707D04B48214612F00C
:1019800023FC12F005FD002070E012F03DFC002069
:1019900012F08AFC0021084612F078FC0022252172
:1019A000082012F0B9FC414B019301A812F09CFCF5
:1019B0003F4940F25B6012F02DFD237AC3F34202EF
:1019C00062F306132372204611F0AEFD10F016FEEE
:1019D000637A00284CD013F0030018BF012010F0E8
:1019E00097F94178821C007812F01AFE27682E6859
:1019F00038461FF05DFA06446A6806F109010120C5
:101A000012F080FE12F040FF20460CF06FFC811CAB
:101A10003246C9B238461FF059FA054660B3254A26
:101A20002549264840F2144317F018FC244807269D
:101A3000A5FB00011AA3D3E9002306FB0511FEF75D
:101A40009FFB20490246204817F008FC002383F33F
:101A50001188BFF36F8F0323184602DF1B4821460E
:101A600012F0B2FB12F094FC6FF08B0003B0F0BDEB
:101A70009B07BBD00120B2E720461FF014FA0028D4
:101A800081D00C4A12490D4840F22C4317F0E6FB76
:101A900085F31188BFF36F8F0323184602DF72E7C7
:101AA00000CA9A3B00000000ED2E0100D6BE898ED0
:101AB00055555500C84A02002B4D0200C13A02009C
:101AC0008D49FD1A5D4B0200334B0200610F02008D
:101AD000573E0200000000002DE9F341C468A289CE
:101AE0004FF6FF739A42054607D17D48214612F012
:101AF0006BFB12F04DFC0020C7E011F035FF2B8985
:101B0000628AE08A1A4492B2104480B2431CE38293
:101B100000236382637FA282590604F1180640F114
:101B2000B780E18B03F03F0332460FF0E3FED4E9C8
:101B30000B23A16A1344994294BF21632363D4E920
:101B40000D1300220B44C4E90D23E26294F87220C5
:101B500012F0040206460AD1D4E917011CF09CFEDB
:101B600028B994F8723043F0040384F8723012F00C
:101B70004BFB002012F098FB201D12F0B5FB2389CF
:101B8000A17A40F25B6043EA014112F043FC304627
:101B900011F04AF92146534812F016FB962012F034
:101BA000A5FD94F85A2094F85B00C2F3C00300210D
:101BB00002F0070200F0070012F0FCFC204611F0D2
:101BC00031FF27682E6838461FF072F906446A68AC
:101BD00006F10901002012F095FD804612F028FE62
:101BE000002012F03FFE236B94F85B0003F13002FB
:101BF000A36B012100F0070003EB42051FF014FC6A
:101C00004544054494F85B0000F00700022849D0E1
:101C100004280CBF4FF4BC73282301211D441FF07E
:101C200005FC284412F0F8FDA18903313246C9B2FF
:101C300038461FF04BF90546002835D02A4A2B4973
:101C40002B4840F24B1317F009FB2A480726A5FB47
:101C5000000121A3D3E9002306FB0511FEF790FA4A
:101C600025490246254817F0F9FA002383F3118825
:101C7000BFF36F8F0323184602DF2148214612F07D
:101C8000A3FA12F085FB6FF08B0002B0BDE8F08183
:101C900003F03F03A17F009304F11F0033461FF0C0
:101CA00082F844E71823B8E720461FF0FCF8002824
:101CB0003FF421AF0C4A13490D4840F2551317F079
:101CC000CDFA85F31188BFF36F8F0323184602DF27
:101CD00011E700BFAFF3008000CA9A3B000000008C
:101CE000ED2E0100693B0100C24B02002B4D0200AA
:101CF000C13A02008D49FD1A0C4C0200334B020020
:101D0000330F0200573E02004B1E59425941014B0E
:101D1000197070475B2D0020034B1B78002B14BFFC
:101D200006200020704700BF312D0020014817F029
:101D300012BA00BFEC350200014817F00CBA00BF20
:101D400001360200014817F006BA00BF143602003F
:101D500008B5094B187870B116F0EDFF074AD2E9C3
:101D60000032C01A064B61EB0201984271F100018A
:101D7000ACBF0120002008BD312D002070090020DB
:101D800041771B0030B589B0FFF7E2FF254B0546D0
:101D90001C6816F0D0FF4FF47A720023FEF7A0F90A
:101DA000002D214A04EB000308BF4FF46172B3FB1E
:101DB000F2F300221D4C1E48CDE90022CDE902229B
:101DC000ADF8003004AA1B0C69468DF802308DF87E
:101DD00004501FF030F8FF232370637004A901231F
:101DE0000622E01CA37019F0E9F9124B124D5A7843
:101DF0009B79627203F02703A372104B104C1A7880
:101E0000104B002A18BF1D4641F2070323800E4BDA
:101E1000636028460923237219F099F9E56060721E
:101E200009B030BD6009002080510100242D002040
:101E30003E2D0020D1060020322D0020312D002023
:101E4000601300201238020017380200014816F013
:101E5000C9B800BF4C0300201FB504240294044CF1
:101E60000194BDF8184000941BF0F6FB04B010BDBF
:101E70004E2D00201FB50A240294044C0194BDF895
:101E8000184000941BF0E8FB04B010BDD106002000
:101E900010B5064C2368834203D104F0FBFE0023F7
:101EA0002360034B00221A7010BD00BF781300207E
:101EB0005B2D002000B51C4B1B6889B033BB1B4B4E
:101EC0001B7833B31A4B9B799B0727D54FF480437C
:101ED000194600220320CDE90632CDE90401ADF810
:101EE0000C208DF80E20FFF74DFF04F0A1FB02221D
:101EF0001049114B009203A804F068FB014628B179
:101F000010F1780F02D00D4817F025F909B05DF8EF
:101F100004FB4FF458734FF44871DAE74FF45C63F5
:101F20004FF44861D5E700BF78130020312D002021
:101F3000D10600205C030020601300203A36020026
:101F400008B516F0F8FE074BC3E90001064B1A78F6
:101F500032B100221A70054A937923F00403937179
:101F600008BD00BF70090020302D0020D1060020E0
:101F700070B51C46BDF810305BBB54B31378102B02
:101F800004D0302B0CD06FF0120070BD012C20D18A
:101F9000114842F26762002316F092F82046F4E7F7
:101FA000052C16D1D2F801600C4D16F0C4FE0C4A77
:101FB0004FF0FF33FEF794F80A4A9379801941F104
:101FC000000143F01003C5E900019371FFF7B8FF6A
:101FD000E4E76FF00C00D8E7300000206009002033
:101FE00018FCFFFFD106002032B9044B1B781BB14F
:101FF000022901D9FFF7A4BF704700BF312D00208F
:1020000010B50B4C0B4A0C4B207800280CBF104627
:10201000184603F035F92378084A23B1937943F041
:102020002003937110BD937903F0DF03F9E700BF3C
:10203000312D0020322D002012380200D106002060
:1020400008B5084817F087F80749002003F064F83E
:10205000064B00221A70FFF7D3FFBDE80840044882
:1020600015F0C0BF5C360200C2390200312D0020DD
:102070004C03002008B519B91AF0A1F8014B1860FB
:1020800008BD00BF7813002030B589B00D46694601
:10209000044605F05FF920B91DB19DF81D30022BF3
:1020A0000BD80B4817F057F820461AF06DF9014687
:1020B000002003F031F809B030BD064B01221A7040
:1020C000FFF79EFFFFF73CFF034817F044F8F2E7E5
:1020D0008D360200312D0020AF36020070B588B079
:1020E0001422002103A819F074F80DF106030593DA
:1020F000314B324C1B7802250695002B50D0012322
:1021000004930C238DF81C302D48866803A973684E
:102110009847002844D1BDF90630328902A95343BB
:10212000029312F06DFE00283AD1029800130028A5
:1021300036DD244A1368002B2CDDC31A132B29DD4E
:102140002560B0F5FA6F106083B232DD40F6B73229
:1021500090422CDCA0F5FA600A22B0FBF2F0C0B28B
:10216000194A216853800023137153719379507079
:102170000029CCBF43F0010303F0FE030E2894BFF7
:1021800043F0020303F0FD03937108B0BDE8704013
:1021900001F060BA2368002BD3DD013B2360D0E758
:1021A0002368002BC4BF03F1FF33236000236420A6
:1021B000D6E70020D4E700BF2F2D002058130020C1
:1021C000C42802005C130020D106002010B50C4B7F
:1021D0001B7886B093B10B4B1C687CB10021182290
:1021E000684618F0F6FF084B0193084B02936946C6
:1021F0000A232046ADF80C3007F08EF806B010BD6B
:102200005B2D002078130020502C0200D106002006
:102210002DE9F843DFF83C80DFF83C9005460E4698
:102220000024BFF35B8FD8F80070BFF35B8F77B9E2
:102230004846FEF711F9304616F08BFD3846FEF79A
:102240000BF901346E2016F084FDA542E9D1BDE8FA
:10225000F88300BF7013002048E8010010B40F4B52
:10226000BFF35B8F012253E8001F43E80024002CDA
:10227000F9D1BFF35B8F70B1BFF35B8F084B53E8AD
:10228000002F43E800010029F9D1BFF35B8F054817
:1022900010BC15F0C1BC10BC704700BF701300200B
:1022A00074130020600700202DE9F0412B4CA57924
:1022B000FFF714FFFFF74CFD294B1A78824209D033
:1022C0001870A37900283CD0264843F00403A3717A
:1022D00016F041FF244B1B78E3B116F02CFD234B85
:1022E000DFF88CC0D3E90023821A61EB03030027D7
:1022F000944577EB03030DDA1E4BD3E90026821ACF
:1023000061EB06069445B74104DAC3E900010220F7
:10231000FFF7A4FF184B1B684BB9A379C5F3400521
:10232000C3F34003AB4210D0144815F05BFEFFF737
:102330004DFFBDE8F04112484FF4F012002315F0B4
:10234000BFBE104803F0FB03C1E7FFF71BFD0223EC
:102350000D4A0E48194603F0EBFFE8E7D1060020CE
:10236000302D0020D4360200312D002070090020CD
:102370000074B70168090020781300204C03002086
:1023800000000020EA360200601300205C030020F9
:10239000F8B5244F244D4FF0FF334FF0FF3238464D
:1023A00015F05EFCBFF35B8F002355E8002F45E876
:1023B00000310029F9D1BFF35B8FBFF35B8F1B4B5B
:1023C0001B4C1E68BFF35B8FA37943F00803A37116
:1023D000FFF7FCFE012E1DD10A26BFF35B8F2B6891
:1023E000BFF35B8F7BB978210320FFF711FFBFF3A9
:1023F0005B8F2B68BFF35B8F1BB94FF4167016F021
:10240000A8FC013EE9D1A37923F00803A371FFF7EB
:10241000DDFEC0E7022EF6D196213046FFF7F8FE2A
:10242000F1E700BF60070020701300207413002044
:10243000D1060020F0B5002387B05E48022219467D
:1024400016F089FE5C481FF0B7FC10B95B4816F027
:1024500082FE5B4C20461FF0AFFC38B1A36859499F
:102460001B6820469847B0FA80F04009564B187018
:10247000002003F06FF8014628B1544816F06BFEB7
:10248000002007B0F0BD17F04DFB5148504D08211A
:102490001FF082FA0128044605DC08225A2128464A
:1024A00018F097FE082425444A4A15F8013C009389
:1024B00015F8023C4848494D052116F059FE464B97
:1024C000474A48480C2116F053FE102C464B2B600F
:1024D00022464FF0000328BF10223D4902A8CDE953
:1024E0000233CDE9043318F069FE404A404802A99E
:1024F0001EF0A1FC286807F04FFE3E4805F036F8B4
:102500003D4805F04DF83D4C20461FF055FCF0B11C
:102510002669A76833683A4A43F4005333603B683E
:102520000D212046984790B97B6802A9204698471C
:1025300020B9336802985840C0F34030002806DDC7
:102540003049002002F0E8FD2F4816F004FE02AAF0
:1025500000202E49029008F0CDF9029B2C4C002B54
:10256000D4BF002301232370FFF74AFDFFF7B6FD18
:1025700016F0E1FB274B2A68C3E9000116492648FB
:1025800016F0E9FD14492A68244816F0E4FD244AAF
:10259000244B207800280CBF1046184616F0DBFDAF
:1025A000214815F01FFD4FF4F01200231F4815F0CD
:1025B00087FD65E720370200EC280200393702006A
:1025C000C4280200A62C02002F2D00205237020042
:1025D000532D0020723702004E2D00207C13002066
:1025E0007B370200322D002040E201003E2D00200A
:1025F000F7370200F8020020E802002060280200FD
:1026000011000100C2390200833702002F8D010042
:10261000312D002070090020A8370200BF370200CA
:1026200004370200F83602004C03002000000020AE
:1026300010B5094C0A44914200D110BD11F8013B7C
:10264000584003090001E35CC0B2434018091B0174
:10265000205CDBB25840EEE77C380200014B1B687F
:10266000184700BF6C030020014B1860704700BF83
:102670006C03002007B50B46002102460091034879
:1026800000F01CF803B05DF804FB00BF5D260000FD
:1026900030B587B00025CDE903010446009503A9B4
:1026A0000548059500F00AF8DDE904309842B8BF06
:1026B000255407B030BD00BF339101002DE9F04F24
:1026C00095B08246039117461C460025387808B914
:1026D000284660E3252809D00399D0470028C0F296
:1026E0005A837B1C01350493049FEFE718220021D5
:1026F0000EA818F06EFD7B78252B7DD00023781C6A
:1027000098469E469C461E46014610F8012B2B2AF1
:1027100000F0A18000F29880202A00F09F80232AF8
:1027200000F09F802BB19DF8403043F040038DF8BE
:102730004030B8F1000F05D09DF8403043F0200341
:102740008DF84030BEF1000F05D09DF8403043F0C9
:1027500010038DF84030BCF1000F05D09DF84030DB
:1027600043F008038DF840302EB19DF8403043F01F
:1027700004038DF840309DF8403003F044004428B5
:1027800003D16FF386138DF840309DF840302A2A2C
:1027900043F080038DF840307FD19DF8412042F016
:1027A00001024B1C8DF841201A782E2A9DF84120F9
:1027B0000CBF0121002161F341028DF8412078D145
:1027C0005A782A2A6ED0013300224FF00A0C19469B
:1027D00011F8010BA0F13006092E40F295809DF80A
:1027E00040101292C1F3400040EAD2700A4660F3F2
:1027F00041028DF840205CE08DF84330BB1C04930F
:102800009DF84130DA0740F12E8154F8048BB8F17D
:10281000000F07DA9DF8402042F004028DF84020B6
:10282000C8F100085E0740F1278154F804BBBBF1F2
:10283000000F80F226819DF841306FF341038DF83F
:1028400041304FF0FF3B1CE12D2A0DD0302A7FF4A0
:1028500069AF012358E74FF0010C55E74FF0010E27
:1028600052E74FF001084FE701264DE70EFB0262E9
:10287000303A0346184610F8016BA6F1300CBCF153
:10288000090FF3D999428FD09DF840101192D20FC1
:1028900062F341018DF8401086E70B4600224FF0AD
:1028A0000A0EE7E79DF8412042F004028DF841202E
:1028B00002331A786C2A47D02BD8682A31D06A2A7A
:1028C0004BD04C2A51D01A4612F8013B0492782B77
:1028D0009DF841208DF8433000F2BE806D2B51D819
:1028E000692B00F2B980572B67D8412B03D0453BA9
:1028F000022B00F2B1809DF84230042262F3020301
:102900008DF84230012373E00CFB0202303A0B4693
:102910005DE7742A25D07A2AD5D19DF84120062179
:102920000CE05A78682A9DF8412006D1012161F314
:10293000C6028DF841200233C5E7022161F3C602C9
:102940008DF841200133BEE75A786C2A9DF841206A
:1029500001D10421EBE70321F0E79DF84120052197
:10296000ECE79DF841200721E8E7BDF8402022F47C
:10297000F04222F0020242F4804242F00202ADF83C
:102980004020DFE76E3BD9B201238B4040F2824109
:102990000B4237D113F0240F51D1D8075CD59DF8E5
:1029A0004230032161F302038DF8423002F07803D4
:1029B000A3F140014B424B411AE0A3F15801C9B2C7
:1029C000012000FA01F111F4624F94D140F60106A2
:1029D00031421DD111F4043F3ED09DF8423060F3E6
:1029E000020302F07802402A8DF8423034D00023EE
:1029F0009DF84020C2F340010B4363F341028DF880
:102A00004020FDE69DF84230022161F30203E8E731
:102A10009DF84210022002F0780260F30201402A81
:102A20008DF8421002BF9DF8401041F001018DF871
:102A30004010632BDBD1131E18BF0123D8E79DF88C
:102A40004230032161F3020312F0780F8DF8423017
:102A500014BF01230023CBE79DF8403043F001036E
:102A60008DF84030C3E79DF94020002AB4BFDDF85F
:102A700044804FF0FF38D5E698077FF5E2AEDDF8E9
:102A800048B09DF841100023CDE911339DF8423044
:102A900003F00703012BC1F3C30132D1CB1E042B7A
:102AA00004D8DFE803F020454520200023680129F1
:102AB0004FEAE372CDE90E321BD19DF93830DA17B7
:102AC000CDE90E3204349DF8403013F003064FD0A8
:102AD000049B03993A46504616F0A9FB0028C0F221
:102AE0005A81054400E654F8043BDA17CDE90E326A
:102AF000E9E70229E6D11AB243F3C033CDE90E2348
:102B0000E0E7022B24D1CB1E042B04D8DFE803F02E
:102B1000181010181800012954F8043B4FF0000257
:102B200014D00229CDE90E32CDD19BB20E93CAE763
:102B3000073424F00704F4E80223CDE90E23C2E7AA
:102B400054F8043B0E9300230F93BCE7DBB2CDE7B0
:102B5000042B08D1073424F00704D4E900230834F7
:102B6000CDE90E23AFE7032BADD154F8043BDDE7ED
:102B70009DF8430078283FF6B7AD62281DD8252878
:102B80004ED058287FF4B0AD0DF136030093DDE947
:102B90000E0108AB10AA16F002FBBBF1000F0746AE
:102BA00080F2C280002F3FF49FAD0DF13609A9EBF2
:102BB0000700002E49D0013047E0633815283FF662
:102BC00093AD01A252F820F0EB2C0000FD2C000088
:102BD000E9260000E9260000E9260000E9260000B9
:102BE000FD2C0000E9260000E9260000E92600008F
:102BF000E9260000492D0000232D0000AB2C000029
:102C0000E9260000E92600002F2C0000E92600003C
:102C1000232D0000E9260000E9260000232D0000F6
:102C20000399D0470028C0F2B68001355CE5BBF1BE
:102C3000000F0E9F35DB5946384618F0D6FA07EBE1
:102C40000009002F3FF450AD00269DF8423013F0EC
:102C50001002059200F0928002305B06DDF844B06D
:102C600048BF129B584448BFC018B8F1000F40F34A
:102C70009F809DF84020A8EB0008C2F38003500716
:102C8000069300F19580510640F188803EB103998A
:102C90003046D04700287EDB069B01351E46302299
:102CA0007DE0384618F053FAC9E70E9800285FD047
:102CB0000DF1360908ABCDF8009010AA002116F0EE
:102CC0006EFABDF8423003F0EF0343F4F04343F0F3
:102CD0001003BBF1000F0746ADF8423023DA00289D
:102CE0003FF402ADA9EB0000AEE70E9B8DF820305B
:102CF000002608AF0DF121090120A6E719075CBFE6
:102D0000C3F300135E01DDE90E2348BF2B26002B21
:102D1000BFF63AAF524263EB4303CDE90E232D26B3
:102D200032E7002630E700269DF840200DF13603FB
:102D3000DB1B6FF386129B458DF840207FF632AF88
:102D4000ABEB030311932DE70E9B07293FF6CCACA9
:102D5000DFE801F00C04060C08080C0C1D70C3E43D
:102D60001D80C1E4EA17C3E90052BDE41D60BBE465
:102D70002E4F064607F10509052066E71A0748BFEA
:102D800001306AE70793104606920399D04700285E
:102D9000DDE9062304DA15B0BDE8F08F20224346B2
:102DA0001946002903F1FF33ECDC45446D1A9846BF
:102DB0002EB103993046D0470028ECDB01359DF851
:102DC0004230DA0601D41B0705D503993020D047DD
:102DD0000028E0DB0135059B33B103999DF84300E2
:102DE000D0470028D7DB0135AB4405E003993020FC
:102DF000D0470028CFDB0135ABEB0503002BF5DC1A
:102E000003994B463A46504616F011FA0028C2DBA9
:102E10000544A844A8EB0503002B7FF765AC039994
:102E20002020D0470028B6DB0135F3E78C380200BC
:102E30002DE9F047058B04462807904611D4022956
:102E400005F0070540F0CC80204616F08DFA78B1E9
:102E50000138218B042811D8DFE800F0C2106D85FD
:102E6000950001290CBF45F0100545F0200525838C
:102E700088F31188BFF36F8FBDE8F08701F0070A70
:102E8000AA4500F0A5800027B9463E46A368002B5E
:102E900000F0BC8041F00801218388F31188BFF362
:102EA0006F8FA168002900F0BA800D68002900F03A
:102EB000B680D1F80480334652462046C047002DE4
:102EC00076D02B6829461D46F0E701F007035A1F0C
:102ED000012A1BD8002221F00701062B276889B29E
:102EE000C4E9002209D13B4603E0628B01326283D0
:102EF0001B68002BF9D141F002012183204616F016
:102F000033FA00287AD041F0200176E0042B0AD170
:102F100021F0070189B22183204616F025FA10B16D
:102F200041F020012183218B01F0070AAA454FD0EF
:102F30000027B946AAE7236921F0070141F00601FD
:102F4000062DD3F8009021832DD1B9F1000F3FD089
:102F500041F00801218388F31188BFF36F8F3A494C
:102F60002046C84729E021F00701236941F0040108
:102F700089B2042DD3F804902183E6D000273E4681
:102F80004FF0040A82E721F00701236941F00501AF
:102F900089B2052DD3F808902183D6D000273E466C
:102FA0004FF0050A72E700273E464FF0060A6DE72C
:102FB0002B4687E7B9F1000FD1D1EFF31188202319
:102FC00083F31288BFF36F8F238B23F008032383CF
:102FD000258BEA062ED525F01003238305F007057F
:102FE0006669218B002EBFF670AF00232768C4E905
:102FF000003321F0070141F001012183218B01F011
:10300000070AAA454FF000097FF440AF002F9CD07B
:1030100041F00801218388F31188BFF36F8F002FDF
:10302000C8D03D68394633465246204616F0C8F9A6
:103030002F46F4E7AB067FF51BAF25F02003238373
:1030400005F0070500E700BFED9301002DE9F74308
:103050000F4606460821C06ADFF8509016F0F7FACE
:103060003C68241A80463C6004EA0905AC4203D857
:10307000002003B0BDE8F08308236A4621463046AD
:1030800016F07DFA0028F4D16946304616F0E9FAC8
:1030900040B1BDF80230BDF804203C6005EA0905E6
:1030A00013441D44A4EB0804E0E700BF0000FFFF49
:1030B0002DE9F047044688B000F1140738461EF0A9
:1030C00065FFA06A8368DB689847E06228B96FF003
:1030D0001505284608B0BDE8F087A06A8368DB685C
:1030E00098470368013B1F2BF1D8A06A216805AA05
:1030F0001EF0CDFB0028EAD1A589002DE7D0069B64
:10310000B5FBF3F203FB1255002DE0D1E389012B4F
:10311000DDD9E36A009593F805904FF0FF334FF047
:10312000FF32384614F092FCE06A082116F08FFA5C
:10313000A8460646E3891FFA85FA534508D8E3896D
:10314000434523D1384614F0F9FC6FF02C05C0E755
:10315000A1892B04891B13FA81F14A4608232046D2
:10316000009116F01AFA78B16946204616F040FA36
:1031700008F10108009908234A4620461FFA88F8FA
:1031800016F00BFA0028DAD00135D3E753450BD1FE
:10319000009908234A46891B204616F0FEF918B903
:1031A0006946204616F024FA69462046FFF74EFF8E
:1031B000054618B1384614F0C1FC8AE7009B6360ED
:1031C0004FEA13484FEA0848C4F80880D4E90113CD
:1031D00099420FD3082301AA204616F0D0F90546DC
:1031E0000028E7D101AB13F8012B914533D101350C
:1031F000082DF8D163681B0C1B0469462046009318
:1032000016F0F6F9A38900994A46204616F0C5F94A
:10321000051ECFDB636876D006EB03084FF6FF7917
:10322000A389CDF800801FFA88F29B1B9A422ED307
:1032300000236168002B43D0090C0904009120464B
:10324000694616F0D5F90099204616F0DEF90546D4
:10325000002D74D0AEE701A9204616F002FA62688C
:1032600010B9921B6260B1E7BDF80850BDF80610B6
:10327000E06AC4F80880294416F0E9F94044904215
:10328000A060EED1002DECD06FF01C0568E00823A3
:1032900003AA4146204616F072F90546002889D156
:1032A00003A9204616F0DDF930B1BDF80C304B45CE
:1032B00002D1BDF810300BB1B044B1E70123B8E73B
:1032C000204616F0A2F9054600287FF473AF636824
:1032D000264AA18913400B44A3EB460363601340C5
:1032E000A360204616F0A6FAB1E75B1A4A462046CC
:1032F00016F053F9051EFFF65DAF08D0E26AA36829
:1033000012681344A360D4E901318B42EDD861689F
:10331000A38901EB46029A429AD1DFF85080A26855
:1033200001EA08039A4293D0204616F06EF905464A
:1033300000287FF43FAF636803EA0803A360A38912
:10334000A288A3EB46039A4206D0384614F0F6FB57
:10335000012323740025BCE6204616F054FA0546E6
:10336000384614F0EBFB002DF2D0B2E60000FFFF70
:103370002DE9F04F1D4691B0037C02910446009266
:10338000002B00F0DE80C26A0821104616F05FF9BB
:1033900029460190104616F05AF9A389019AA3EB29
:1033A0008203AB420746C0F0CF801DB1009B002BCB
:1033B00000F0CA806368059306AA05A92046DDF8D7
:1033C00014A016F08BF9064600283ED1BDF818303F
:1033D000029A934206D06268059B9A42ECD1002D76
:1033E00039D132E006A9204616F03BF90028F2D088
:1033F000BDF81A80BDF81C305DB39D422BD1E36A45
:10340000DDF800B01B684FEA1A4A5B424FEA0A4AED
:1034100003F02003D0440393AA46DDF80C90D14575
:1034200028BFD1464B4608AA4146204616F0A7F8C9
:10343000002851D14A4608A9584617F0AFFE50B9A6
:10344000BAEB090AC844CB44E7D1304611B0BDE815
:10345000F08F002BF9D0002F41D104F114094FF067
:10346000FF324FF0FF33484614F0F0FADFF8E0B0D7
:103470004FF6FF7AE3899E4260D0D4E901217B18A0
:103480009A4230D3029BADF82030FF23009A8DF88A
:10349000263020462B46ADF82210ADF8245016F009
:1034A00067F929468046E06A16F0D1F8A26802441E
:1034B000A260B8F1000F0AD108A816F0BFF808A959
:1034C000204616F08FF9002814BF8046A8464846CB
:1034D00014F034FB4646B8E7BDDC0646B5E7019B71
:1034E0001F44BFB2B9E70821E06A16F0B0F8002324
:1034F000ADF824301318ADF82230A389ADF820A020
:1035000002EA0B021A44101A606008A88DF826A07F
:1035100016F094F808A9204616F064F9211D2046FB
:1035200016F066F8636803EA0B03A360204616F002
:1035300081F980460028CAD101369BE76FF01B084D
:10354000C5E76FF00C0680E76FF015067DE700BF5A
:103550000000FFFF014B036000207047B42C020005
:1035600070B5114B1C680D46DCB1104B1968002377
:103570008B4202DB6FF0010070BD224612F8106B27
:10358000864202D001331446F2E7E06810B96FF0CA
:103590001200F1E71EF010FC0028F8D02C6000208B
:1035A000EAE76FF00C00E7E770030020B42C02009C
:1035B00070B588B005460C46C0B269461646FFF79E
:1035C000CFFF00281BDB0098C8B1436802938368D3
:1035D00022680195CDE903360023CDE90623059342
:1035E000C56816F05FFA6DB12846084901AA1EF0B9
:1035F00052F9079808B9059B236008B070BD6FF0B9
:103600001500FAE76FF01200F7E700BFA79A010074
:103610001FB507240294044C0194BDF8184000948F
:103620001AF01AF804B010BDDB06002010B5084CE3
:1036300086B024788DF81740012402940DF1170408
:103640000194BDF8204000941AF006F806B010BDB1
:10365000E206002000B589B064288DF8070019D86B
:103660000E4B18221870002102A817F0B2FD0C4B67
:1036700003930DF10703049302A901230020ADF881
:10368000143005F049FE10F1800F08BF002009B08A
:103690005DF804FB6FF01500F9E700BFE2060020BB
:1036A000C02D02002DE9F0410F4B1C6805460E4667
:1036B0001746ACB14FF0FF324FF0FF330B4814F018
:1036C000C5F963683246D3F8088029463B46204650
:1036D000C0470446054814F031FA2046BDE8F081A1
:1036E0006FF00104F9E700BF801300204C070020B1
:1036F00000230360044B5A6812B9C3E90000704705
:1037000010605860704700BF84130020014B1860A0
:10371000704700BF8013002030B585B000230546F8
:10372000CDE9023301904FF0FF330C484FF0FF32E8
:1037300014F08CF90A4B1C684CB9284600F08EF83E
:103740000446064814F0FAF9204605B030BD636817
:1037500020461B6801A998472468EDE74C07002024
:10376000841300201FB5CDE9010103924FF0FF3310
:103770000A484FF0FF3214F069F9094B1C682CB964
:10378000064814F0DBF9204604B010BD63682046FB
:103790001B6801A998472468F1E700BF4C07002087
:1037A00084130020024B0022C3E90022704700BFAF
:1037B00084130020024B0022C3E90022FFF7F2BF6E
:1037C0008C1300202DE9F74307460C4609B100236E
:1037D0000B601F4DDFF87C9000264D450FD31E4B2C
:1037E0001D6885B355F8148C01AA41463846143D2E
:1037F00016F09FF910B3D6B914BB2E461EE0D5F8CB
:10380000008001AA4146384616F093F950B116B926
:1038100054B92E4606E031680022404616F089F978
:103820000028F5D11435D8E7019B2360F1E7316812
:103830000022404616F07DF90028DDD16D69D0E701
:10384000019B2360D9E7304603B0BDE8F08300BF99
:10385000D42A02004C2B02008C130020F8B5184C1F
:10386000184F06460025BC4208D3174B1C682CB3E2
:10387000143CB6B9E368E3B96469F8E72EB9E368C4
:103880005BB9284614340546EDE72068002231462E
:1038900016F04FF90028F2D1F3E79847002DF0D148
:1038A000F0E720680022314616F043F90028E1D104
:1038B000E2E79847002D08BF0546DDE72846F8BD3A
:1038C000D42A02004C2B02008C13002038B50C4D7A
:1038D0000C484FF0FF334FF0FF3214F0B7F82B785D
:1038E0003BB9FFF767FF00F06DF8044610B90123FC
:1038F0002B700024034814F021F9204638BD00BF86
:103900005C2D00204C0700202DE9F047048FDFF8E4
:10391000B0A0013498B006468946A4B200F1080769
:10392000651EADB2B5F5004F47D04A2305AA29461A
:10393000384616F0B0F804F57F543F34A4B2804600
:10394000214601230DF10B02384616F0A4F8B8F118
:10395000000F014610DC002810DC338FAB4209D188
:1039600032466B1E22F8383F4FF40041022338469E
:10397000FFF7FEFC2C46D3E7002808DC2946384632
:1039800016F025F82146384616F021F8E5E708F14B
:1039900060030DEB0308002308F84C3C5246CDF8B9
:1039A000009003AB05A80397ADF8104016F0F7F8A8
:1039B0000028DFD018B0BDE8F0870020FAE700BF8C
:1039C0000D9C01007FB50123694603200193FFF799
:1039D000C7FD044660BB02AA01A90320FFF7E8FD6A
:1039E000044610B110F10C0F22D10399B1F5803FBC
:1039F00023D2009A002394681846084484421AD3BC
:103A00000133082BF9D10E4DA982EB825368AB60CC
:103A10002846D368EB6316F091F9044640B9094E85
:103A20006E602846FFF764FE28466E60FFF76EFE64
:103A3000204604B070BD9BB2E5E76FF02004F7E7C5
:103A400094130020B4030020014B1868704700BF96
:103A5000C8030020F0B5082289B016F05AFBCB6AE3
:103A600003930B6B04934B6B05938B6B0693CB6BA0
:103A7000079313466A460C46064600271146104631
:103A8000CDE90177009716F052FA314605463046E7
:103A900016F04DFA216B0391616B0491A16B0591B6
:103AA000E16B0544CDE906171046114616F03FFAC2
:103AB00031460544304616F03AFA0544206A009033
:103AC000606A0190A06A0290A06B0690E06B07907C
:103AD0003046CDE90477039716F029FA0544606A69
:103AE0000090A06AD4F838C00190E06A0290CDF846
:103AF00010C0606BD4F83CC00390CDE905C0206ACB
:103B00000790304616F013FA0544E06A0090206BE7
:103B10000190606B0290206A0690A06A0790304680
:103B2000CDE90477039716F027FB236B0093636BB3
:103B30000193A36B0293E36B0393636A0693E36AB7
:103B400007932D1A0823304616F016FB636B00937B
:103B5000A36B0193E36B0293236A0393636A049359
:103B6000A36ACDE90537236B07932D1A0823304646
:103B700016F002FBA36B0093E36BCDE90137636A98
:103B80000393A36A0493E36A0593636B07932D1A67
:103B90000823304616F0F0FA2D1A10D40D4C35B922
:103BA00008223146204616F0C0FA01280FD008231B
:103BB00022463146304616F0DFFA2D1AEFE7054A65
:103BC00008233146304616F0B2F92D18F8D409B062
:103BD000F0BD00BF142E02000449431E0F3013F83D
:103BE000012F8A5C1A708342F9D17047AC38020009
:103BF000F0B5264E07460C460FCE8DB001AD0FC571
:103C00000FCE0FC596E8070085E807003846002F5D
:103C100038D0002C38D0381F2146024610344B785B
:103C20000D781B0443EA0563CD782B438D7804316E
:103C300043EA05238C4242F8043FF0D1144C04219E
:103C40008A07036916D1C3F30742A55C1A0EA25C6A
:103C500042EA0562C3F30725DBB2655DE35C42EA35
:103C6000054242EA032221F0030330336B4453F848
:103C70002C3C534050F8042F013153402C29036150
:103C8000DED101200DB0F0BD2046FBE7502B020035
:103C9000AC38020030BFFFF7FDBF00BF074A936892
:103CA00093F90E10002907DB526993421FBF044AA3
:103CB000536843F080535360704700BFBC2C002012
:103CC00000ED00E070B5264B15469A6A12F0100F11
:103CD0009A6A14BF1124102412F0080F9A6A18BFB0
:103CE0001224920706460AD5586B9A6A140634D5F0
:103CF00019B19A6A22F080029A62132401E06FF0EF
:103D00001500174B9A6A12F0010F9A6A18BF142413
:103D100012F0200F9A6A18BF1524D20602D49B6AAB
:103D20009B070AD50E4B5B68190506D5314600F096
:103D300031FA10B180F309880224094B9A6A92067D
:103D400042BF5A6A22F400525A629A6A42F0FF0253
:103D50009A6200232B70204670BD6FF01500CCE7EF
:103D600000ED00E0134B9A6A12F0007F9A6A14BFCC
:103D70001E201D2012F0807F9A6A18BF1F2012F4A7
:103D8000002F9A6A18BF212012F4802F9A6A18BF58
:103D9000222012F4003F9A6A18BF232012F4803FB9
:103DA0009A6A6FEA02426FEA12429A6218BF2420AE
:103DB000704700BF00ED00E010B5194B0246986A4D
:103DC0009C6A10F4805F14BF1720162014F4006F53
:103DD0009C6A18BF1820A40509D5986B986A00043E
:103DE00004D51AB19A6A22F400429A6219200C4B47
:103DF0009A6A12F4806F9A6A18BF1A20D2050CD4FE
:103E00009B6A13F4005F18BF1C20054A936A43F4B1
:103E10007F43936200230B7010BD1B20F5E700BFAA
:103E200000ED00E070B5454B5B688AB00546C3F312
:103E30000803002686F31188BFF36F8F02F07F40DE
:103E4000B0F17F4F11D102F00C0008280DD01007FF
:103E50004CBF0D4601260022033B8DF80720032BA3
:103E600005D8DFE803F01E5D615A3546F3E700240C
:103E70009DF807309BB92022294602A817F09EF929
:103E8000099B002E54D0C3F3080222B96FEA5323D2
:103E90006FEA4323099302A9204617F08FF80AB06E
:103EA00070BD264BDA6A9107E1D4DA6A002ADEDBBC
:103EB000DA6A5200DBD55A69A96942F480725A6104
:103EC000BFF34F8FBFF36F8F5A6931F8021C22F492
:103ED00080725A61BFF34F8FBFF36F8F4DF602723E
:103EE00091420AD09A6AD2B24AB10DF10702012179
:103EF0002846FFF7E7FE0446BAE72C68B8E79A6A57
:103F000012F47F4F05D00DF107010120FFF754FF98
:103F1000F1E79B6AB3F5803FA9D3FFF723FFEAE7F8
:103F20000DF107020021E3E70DF107010020EDE7A5
:103F300023F4FF7323F00103ACE700BF00ED00E0C2
:103F4000024A536943F010035361704700ED00E0EB
:103F5000EFF30880EFF3098101B57246FFF762FFC6
:103F600001BD00BF12F0F8FB202080F31188084843
:103F70004FF40461401880F30988EFF314800221A4
:103F8000084380F31488BFF36F8F00F0C3F800007C
:103F9000C0470020084B9B6883420BD1EFF3058399
:103FA00043B1064B5A6842F080525A605A6A22F472
:103FB00000425A621EF0D6BABC2C002000ED00E090
:103FC000094A93686FF00A01D967084998674B68F6
:103FD00043F080534B60002383F31188BFF36F8F4E
:103FE0009368D86F704700BFBC2C002000ED00E044
:103FF00010B50446EFF31183202383F31288BFF337
:104000006F8F094B58699860084B4FF000625A60F7
:104010000022836F826783F31188BFF36F8F00F0F4
:104020001DF9204610BD00BFBC2C002000ED00E0B3
:104030000B498A684FF030001044EFF3098C80E898
:10404000F01F74467046FFF7D3FFA64604498A68FE
:1040500002F1300090E8F01F8CF3098870470000EF
:10406000BC2C00201EF0040F0CBFEFF30880EFF310
:104070000980816911F8021C0229FFD001B516F0F0
:10408000A3FF01BD40B2002807DB044A4109012318
:1040900000F01F00834042F82130704700E100E04B
:1040A00040B200280CDB4309064900F01F00203312
:1040B0000122824041F82320BFF34F8FBFF36F8F5F
:1040C000704700BF00E100E0054B420900F01F000F
:1040D00053F82220012303FA00F01040704700BF7C
:1040E00000E100E040B20028A8BF00F1604001F10B
:1040F0000101B8BF064B4FEA4111ACBF00F561406A
:1041000000F00F00C9B2B4BF195480F80013704713
:1041100014ED00E00F4A08B50F4B22F07F029A60C1
:10412000BFF34F8FBFF36F8FD3F8882022F4700254
:10413000C3F88820EFF3148323F0040383F3148877
:10414000BFF36F8F13F07EFB14F09EFB00F05CF862
:1041500013F0BCFB0000000000ED00E042F8203C42
:10416000009B42F81C3C0A49019B42F8183C029B08
:1041700042F8143C21F001014FF0807342F8043CF6
:1041800042F8081C0023203A02658367704700BF8D
:104190008B910100094A0346906870B113F1160F24
:1041A000806E05D0A0F140029A4205D8834203D226
:1041B000814228BF0020704700207047BC2C00209F
:1041C00008B50B4B0E461546986000F047F82C4694
:1041D00086F309884FF00000064B984720464FF0C1
:1041E00000014FF000024FF00003034C204700BFD6
:1041F000BC2C0020E7AF01008B910100014B102285
:104200001A61704700ED00E0044800232021C21825
:104210000133272B82F80013F9D1704700E100E049
:1042200008B5EFF30583064A103B02EBC30152F8D1
:10423000330049688847BDE80840FFF72FBD00BF3D
:1042400000290200024B034A0348012100F076B81E
:104250000000012000000020C02E0200826E054BED
:10426000403A1A60044A4021C3E90112184601216C
:1042700000F06EB8D413002000000B15084AC2F8F5
:1042800098000B6823F01F03034343F01003C2F8A8
:104290009C308B6843F00103C2F8A030704700BF28
:1042A00000ED00E02DE9F043DFF8608085B00E46B8
:1042B0001F4604464FF00009B14523DA6068D8B1C3
:1042C0003FB1411E08421BD11F2819D9236819424A
:1042D00016D12368019316F0A9FEA3680343039344
:1042E000D8F89050C5F30725D0B2013DA84207D8B1
:1042F00001A9FFF7C3FF421C09F101090C34DBE7F8
:104300006FF01502104605B0BDE8F08300ED00E047
:10431000044B0522C3F89420BFF34F8FBFF36F8F78
:10432000704700BF00ED00E0BFF35F8F024B00223B
:10433000C3F89420704700BF00ED00E010B5034CB7
:1043400001232278FFF7AEFF207010BD5D2D002005
:1043500008B50B4A00231278FFF7A4FF10F1160FDF
:1043600007D0084A0021D2F89030C3F307239842BF
:1043700000DB08BDC2F89800C2F8A0100130F2E7D7
:104380005D2D002000ED00E02DE9F043534B544C2F
:10439000D3F890302568C3F307239D4285B000F21F
:1043A0009A80FFF7C1FF00200C2685421AD14D4CA0
:1043B0004D4F25706846FFF7CDF8DFF82081DFF814
:1043C0002C9106460025AE4213D1237843490020A4
:1043D000D1F89020C2F30722934276DBFFF798FFD3
:1043E000002042E0616806FB0011FFF747FF013043
:1043F000DBE7009800EB05114FEA051CCB683B405A
:10440000B3F5000F48D00AD8B3F5001F30D0B3F58C
:10441000800F36D0B3F5801F10D00135D3E7B3F14C
:10442000807F42D0B3F1007FF7D150F80C3088681C
:104430004A6816F0FBFD40F4802009E050F80C308B
:1044400088684A6816F0F2FD40F0885040F4302049
:10445000CDE901230390D8F890302078C3F30723E7
:10446000013B98422AD96FF0150005B0BDE8F083F2
:1044700050F80C3088684A6816F0D8FD40EA090008
:10448000E6E750F80C3088684A6816F0CFFD40F037
:10449000007040F40030DBE750F80C3088684A6860
:1044A00016F0C4FD40F08270D2E750F80C308868F6
:1044B0004A6816F0BBFD40F08870C9E701A9FFF714
:1044C000DDFE237801332370A7E7C1F89830C1F8E7
:1044D000A00001337CE74FF0FF30C6E700ED00E0BD
:1044E000CC2E02005D2D00200000F0FF000008111E
:1044F000014B1860704700BFCC030020044A012321
:10450000C2F840354FF080420020C2F8783570473D
:1045100000E0014020B1034B800143F00103184744
:10452000704700BFD02B020008B504481DF044FCC2
:1045300000280CBF6FF01200002008BD7428020094
:104540002DE9F0414FF0FF3206460D464FF0FF33A4
:1045500000210F2000F0DCFB012700F10C080446CD
:104560000776022140461DF034F80F230421037022
:10457000417040461DF02DF8054B47704680057090
:104580002146D3F86C01BDE8F04100F037BE00BF12
:1045900060000020F8B55D4EBFF35B8F3468BFF359
:1045A0005B8F14F0010454D0594F5A4C5A4D5B485C
:1045B0003A46214615F00FFC00283FD0202229461C
:1045C000204616F0EBFD0028F1D000274FF0FF3217
:1045D0004FF0FF33012000F08BFB00F10C050221AE
:1045E000044628461CF0F5FF3E2303704223437027
:1045F000012128461CF0EDFF0823037041212846C5
:104600001CF0E7FF054600F8017BCFB140220021F6
:1046100016F0DFFDBFF35B8F56E8003F23F0010388
:1046200046E80032002AF7D1BFF35B8F21463C4BAE
:10463000D3F86C01BDE8F84000F0E0BD1F27C5E7E6
:10464000364916F022FE203105F1210016F01DFE3C
:10465000E0E7BFF35B8F3368BFF35B8F9B0753D5F6
:10466000BFF35B8F2A4935682C48BFF35B8F16F088
:1046700070FA002834DA6FF004044FF0FF324FF084
:10468000FF33012000F034FB00F10C070221054646
:1046900038461CF09EFF3E23037022234370012105
:1046A00038461CF096FF09230370212138461CF080
:1046B00090FF0346013014B31F221A70FF212022FD
:1046C00016F087FDBFF35B8F56E8003F23F002032F
:1046D00046E80032002AF7D1BFF35B8F2946A6E7F0
:1046E0000C490D480A4B15F0040F01F1200218BFC8
:1046F0000146104615F0BEFB0028BCD0BDE70749B7
:104700001C7016F0C2FDDDE7F8BD00BFE01300200D
:10471000EC2E02005E2D0020D53902007E2D0020F7
:104720006000002070B5214CBFF35B8F2368BFF39E
:104730005B8FDA0706460D4601D50C2070BD0129B6
:1047400031D8BFF35B8F54E8003F43F0020244E8E6
:1047500000210029F7D1BFF35B8F9B07EDD41448EC
:10476000314616F092FD134806F1200116F08DFD3A
:10477000BFF35B8F75B154E8003F43F0040344E896
:104780000032002AF7D1BFF35B8F0B4800F074FAB8
:104790000020D3E754E8003F23F0040344E800324C
:1047A000002AF0D0F6E71220C8E700BFE01300208F
:1047B0007E2D00209E2D0020D003002070B5067EA7
:1047C000044676B9C3681D8842F22602954246D057
:1047D00010D842F20102954250D042F225039D4288
:1047E00014D02B4BD3F86C01836821469B68BDE83D
:1047F0007040184742F25E039D42F2D103210C3013
:104800001CF006FFE06890F840102EE003210C3009
:104810001CF0FEFE204610F0D7FABFF35B8F1D4B55
:104820001A68BFF35B8F920707D50C26314642F218
:104830002500FFF785FE002070BDBFF35B8F53E8B6
:10484000002F42F0010143E800100028F7D1BFF328
:104850005B8FD307E9D4104800F00EFAE6E7032196
:104860000C301CF0D5FEE0683146FFF75BFF0646D2
:10487000204610F0A9FA31462846DAE7DA7802F045
:104880007F02DA701A7922F001021A71A9E700BFDB
:1048900060000020E0130020D00300202DE9F74342
:1048A0002F4CBFF35B8F1F462368BFF35B8F164609
:1048B000DA07054625D520B96FF0010003B0BDE841
:1048C000F08301A915F059F9264980460246284689
:1048D00016F050FCE0B9BFF35B8F2368BFF35B8F2A
:1048E000C3F3C0051B070CD4D43C0722214638462D
:1048F000B047062807D807222946204616F069FC4B
:10490000E5710020DAE70723B0FBF3F0E071F8E788
:1049100015494246284616F02DFC814650B9102212
:1049200004F1DE013846B047031EEADB234483F876
:10493000DE90E6E728460D49424616F01BFC054688
:104940000028B9D1102204F19C013846B0470F2845
:10495000D7D81022294604F19C0016F03AFCD0E783
:1049600034010020FC3B0200F5390200FA39020054
:104970002DE9F04188B09C79DDF838805D791E79A9
:10498000DF7893F802C093F801E01B78B8F1000FCC
:104990000ED0CDE90638CDE904CE1346CDE9026745
:1049A000CDE90045084A14F0E3FB08B0BDE8F0810A
:1049B000CDE905E3CDE9037C1346CDE90156034A71
:1049C000009414F0D5FBF0E7FE390200223A020011
:1049D00070B504468CB01E461546A2B129B10A46F0
:1049E00002A8042114F047FC02A900912B4622469C
:1049F000242103A8FFF7BCFF109A314603A8FEF755
:104A000051FE0CB070BD0346044A242103A814F0E3
:104A1000AFFB0028F0DA6FF01500F2E7433A02002E
:104A200007B5064B0648DA79C2EBC20200920022B3
:104A30001146FFF7CDFF03B05DF804FB60000020D6
:104A4000FC3B020007B5074B0748A3F5B872D279C3
:104A50001201009200221146FFF7BAFF03B05DF881
:104A600004FB00BFD0010020FA39020030B5044633
:104A70008DB0154692B129B10A4602A8042114F05E
:104A8000FAFB02A900912B462246242103A8FFF736
:104A90006FFF03A815F049F80DB030BD0346054A75
:104AA000242103A814F064FB0028F2DA6FF015004B
:104AB000F2E700BF433A020007B5009313460A46E7
:104AC00001460348FFF784FF03B05DF804FB00BF15
:104AD0004B3C02000A4601460148FFF7C7BF00BF32
:104AE0004B3C020007B5009313460A4601460348B3
:104AF000FFF76EFF03B05DF804FB00BF453C02000A
:104B000007B5009313460A4601460348FFF760FFC6
:104B100003B05DF804FB00BF363C02000A460146C4
:104B20000148FFF7A3BF00BF363C020007B50022D3
:104B30000346009103481146FFF74AFF03B05DF8B2
:104B400004FB00BF3D3C020007B500220346009174
:104B500003481146FFF73CFF03B05DF804FB00BFBC
:104B6000F539020008B5024813F03CFA002008BDF0
:104B7000F003002008B5024813F034FA002008BD05
:104B8000E003002070B51E4CBFF35B8F2368BFF3BA
:104B90005B8F13F0010F254624D094F8DE30A4F18A
:104BA000D40613B9174800F06BFBF379E3B1BFF3F8
:104BB0005B8F2368BFF35B8F5A0701D400F04EFB75
:104BC000BFF35B8F55E8003F23F4803245E80021B6
:104BD0000029F7D1BFF35B8FDB0303D5FFF7C2FFDB
:104BE000FFF7C8FF002009E001F0F6F930B9F379CA
:104BF000002BDCD101F02AFA0028D8D070BD00BF0C
:104C000034010020A138020007B5009313460A467C
:104C100001460348FFF7DCFE03B05DF804FB00BF6C
:104C2000A33C02000A4601460148FFF71FBF00BF30
:104C3000A33C020030B50A4D0A4B85B0002428463B
:104C4000029303941DF037FB02AB009328460649FC
:104C50000A234FF4A86213F0CBF9204605B030BD0B
:104C6000780900204C3A0200003400200146014837
:104C700013F0FCB978090020014601481DF0F0BA94
:104C80007809002030B4034608461A78012A13D068
:104C9000022A26D072B9154A02F1100452F8045BB8
:104CA00041F8045BA242F9D112780A705B88437321
:104CB0001B0A837330BC70470C4A02F1100452F88F
:104CC000045B41F8045BA242F9D112780A705B6878
:104CD0004373C3F307221B0CC3731B0A8273037451
:104CE000E8E730BC1122194616F068BA553A0200BE
:104CF00038B5054605481CF0FDFB044620B10121EE
:104D00000C301CF05CFC2576204638BD8408002061
:104D1000132810B50CD10A481CF0ECFB044628B14E
:104D200001210C301CF04BFC01232376204610BDE2
:104D300009B10448F0E7BDE810400120FFF7D8BFF3
:104D4000B008002000080020F8B506460F4602F023
:104D5000C5FA044640B18378012B24D0132117F003
:104D600075FA204601F096FF3946304605F060FEA0
:104D7000054628BB3946304604F084FC144B1B68BA
:104D800023B31C6804B10C3C53F8043C13B13946FE
:104D900030469847D4B12346E4689B68A4B10C3CE4
:104DA000002BF4D1F7E70023D0F8A050C0F8A030D2
:104DB000132117F04BFA204601F06CFF002DD3D0E1
:104DC000284619F0D9FBD5E7002BE0D1F8BD00BF8C
:104DD0004814002070B5C6683378B6F8014083B92E
:104DE0000F21204602F01AF8F378054650B90A4A16
:104DF000118831B96FEA04506FEA10501080074AE9
:104E0000137070BD0373012101F07EFF2846BDE8D9
:104E1000704001F03FBF00BFF42C0020BE2D0020E9
:104E200010B5084C0146062294F86F0002F070FAA3
:104E300038B994F86F000449BDE81040052202F02B
:104E400067BA10BD60000020BB39020010B5012117
:104E500004460C301CF0E4FB2146034A0078BDE810
:104E60001040002316F09ABB7430020010B50121E7
:104E700004460C301CF0D4FB2146034A0078BDE800
:104E800010400A2316F08ABB2430020070B5304867
:104E90001CF04BFB0446002858D0037E012B32D077
:104EA000032B02D1038A032B02D80FF08DFF20E0E1
:104EB00004210C301CF0B4FBFF2243880688627684
:104EC000228AC6F30B009A42608301D02046ECE7A9
:104ED0000F2101F0A3FF05460028F7D001F0CAFF1B
:104EE000320B60762146284617F01CF9284601F05F
:104EF000D1FE184BD3F84C3143B3BDE8704016498E
:104F000016481DF0ADB9038A012BCED902210C3011
:104F10001CF086FB0546007816F0CEFA10F002066B
:104F20000DD10F4A0F49104840F67E3314F096F920
:104F300086F31188BFF36F8F0323184602DF0B4AF5
:104F400028780623214616F029FBBFE770BD00BF75
:104F5000AC0100206000002010040020180A00208E
:104F6000663A0200933A0200C13A0200F42F0200AE
:104F70002DE9F047884616468246002878D0BFF3D0
:104F80005B8FDFF8F090002359E8004F49E80032CA
:104F9000002AF9D1BFF35B8F002C69D020460FF0B7
:104FA00067FE354D0C2303FB0050274643885345CD
:104FB00011D0BFF35B8F59E8003F49E80072002A27
:104FC000F9D1BFF35B8F002B52D01F463846BDE8A6
:104FD000F0470FF0F9BEA6420ED020461CF085FA2D
:104FE00004F10C090121217648461CF0E8FA328AC6
:104FF000F16848461CF0F3FA20460FF039FE0C2603
:1050000006FB00504368ABB1B8F1000F12D1204647
:105010000FF02EFE06FB005001214268D2E900038A
:10502000127A03F01F06B1405B09DAB100EB83008E
:1050300016F054FA20460FF01BFE0C2606FB00501B
:105040008368002BC2D020460FF012FE704305F893
:10505000008020460FF00CFE06FB0055A86812F0F9
:10506000DBFDB3E7C94300EB830016F0AEFAE1E7DE
:10507000BDE8F087A8010020E413002010B5C1E9C5
:1050800000239DF808300B720C460FF0F1FD034B26
:105090000C2202FB00335C6010BD00BFE413002053
:1050A0002DE9F0474FF0FF3206464FF0FF33184826
:1050B00088461CF01FFA044638B300F10C070121A2
:1050C0004FF0000938461CF07AFA84F81890204610
:1050D0000FF0CEFD0F4D4FF00C0A0AFB005046803A
:1050E00020460FF0C5FD0AFB0050C0F8089020468E
:1050F0000FF0BEFD0AFB005503213846C5F80490A9
:105100001CF067FA068080F802802046BDE8F08730
:1051100058080020E413002013B50C468DF8070052
:10512000B8B949B90C499DF807000DF1070205F01F
:10513000E1FB002002B010BD08490722204616F00E
:105140002DF80028EED09DF807002146FFF7FCFD62
:10515000EFE76FF01500EDE7FBB40100C239020084
:1051600029289ABF014B185C09207047763B020042
:105170002DE9F843044600F10C0630461CF060FAB5
:10518000B4F81080B8F1010F054604D82046BDE8F8
:10519000F8430FF019BE304602211CF041FA0746D1
:1051A000007816F089F910F0010906460DD10F4A72
:1051B0000F49104840F6977314F050F889F311889E
:1051C000BFF36F8F0323184602DF05230A4A38789E
:1051D000214616F0E3F9B307D8D56369A4F8108027
:1051E00013FA85F5E560BDE8F88300BF663A020072
:1051F000DE3A0200C13A0200CC2F020038B50C465C
:1052000013F0C8F9237E012B0AD0032B19D12146B4
:105210000F481CF075F90F490F481DF021F80BE0FD
:10522000E368187816F048F9C207054602D520460B
:10523000FFF79EFFAB07EAD4002413F0BFF9204626
:1052400038BD20460FF0C0FD6FF01504F5E700BF34
:10525000AC01002010040020180A0020014804219D
:1052600016F03CB934010020044BBFF35B8F186883
:10527000BFF35B8FC0F38000704700BF3401002094
:1052800038B5054615F063FF1028044615D80C48BC
:10529000294615F063FF70B122462946084815F0EB
:1052A0008DFF084803190022214600F5D97083F8C4
:1052B000B221FFF749FC002038BD6FF00B00FBE77F
:1052C00012020020600000200048704712020020F7
:1052D000014812F087BE00BF0004002038B5054623
:1052E0000C4619B9FFF7DCFE0446A8B140F6354379
:1052F0009D4209D12046FFF761FA054650B120468C
:105300000FF062FD284638BD054821461CF023F900
:10531000FFF7DEFF0025F5E76FF06805F2E700BF55
:10532000B401002038B502460B46244DD5F854117F
:1053300009B9002038BD05F5987012F091FC0028DD
:10534000F7D10022002305F5AA701CF0D7F8044617
:1053500068B91B4A1B491C4840F68D3313F07EFF89
:1053600084F31188BFF36F8F0323184602DFD5F84B
:10537000480120B10FF028FD0023C5F84831204630
:105380001CF0EBF8C5F848012046FFF717FA98B172
:105390000E4812F041FC20460FF06AFC0C4B0C2228
:1053A00002FB00301F2140882246FFF7E1FD204626
:1053B0000FF00AFDFFF78CFF0120BBE76000002023
:1053C000663A020022420200C13A02009001002027
:1053D000E41300202DE9F04F064687B015460C4631
:1053E00031B9FFF75DFE044648B96FF0680079E017
:1053F000887A0FF035FC474B834240F084800122CD
:10540000002168461CF07EFE20460FF031FCDFF8DC
:1054100008910C2303FB0090C0F808D020461CF034
:105420009CF801463D481CF096F8FFF751FF13F039
:105430008DF93B4B834222D1DFF8E8A0DFF8E8B0DA
:1054400036481CF05BFE002180464FF4A020FFF799
:1054500069FF074688B94FF4CA7352465946334824
:1054600013F0FCFE3248314613F0F8FE87F3118842
:10547000BFF36F8F0323184602DF4445E0D14FF49A
:10548000A0220023684612F0EBFB074698B14FF4C8
:10549000CD73244A2749254813F0E0FE26483A46B2
:1054A000314613F0DBFE002383F31188BFF36F8FC7
:1054B0000323184602DF20460FF0DAFB0C23584383
:1054C00019F80060BEB12046093E0FF07DFC092EA0
:1054D0000ED8DFE806F01B0D0D0A050D0D0D0D1899
:1054E0006FF00B0007B0BDE8F08F6FF00C00F9E72C
:1054F0006FF00400F6E715B12C600020F2E72046BB
:105500000FF062FCF9E76FF01500EBE76FF06E004B
:10551000E8E700BF58080020E4130020B401002091
:1055200018120020663A0200F73A0200C13A02005F
:10553000FF3A02001F3B0200283B020010B5FAF7B9
:10554000DBFF034B1B6813B1BDE81040184710BDCB
:10555000FC13002073B5274D0646D5F86C011CF0EE
:105560002BFC00283FD06FF0020105F1D40016F0AB
:105570002CF8012115F0B2FFC30737D415F0C7FE90
:10558000044668BB1C4B1E600122114605F598704D
:105590001CF0B8FD05F5AA701CF070FD17481CF052
:1055A0008AFE1749154800946FF0070340F69802E9
:1055B00012F01EFD134911481CF0DAFED5F86C01FB
:1055C000114983681B689847044648B926B902B058
:1055D000BDE87040FAF790BF05F1C40012F002FD7B
:1055E000204602B070BD6FF01204F9E76FF0770447
:1055F000F6E700BF60000020FC130020180A00201E
:10560000803900206D3B0200FD510000F7B5144BBE
:1056100093F99B30002B05460C461DDA14B9204641
:1056200003B0F0BD082C01AA4FF0000142F21800AF
:10563000264628BF0826FFF7CDFE0028F0D1019F9F
:10564000F96832460131284615F0B8FD38460FF0AA
:10565000BBFB3544A41BE1E76FF08500E0E700BF2A
:10566000600000202DE9F0418C4BB0F801801988D2
:1056700048F4704291424FF0000608BF1E80054674
:1056800008BF874B88B008BF1E7800F0E7FA2C7877
:10569000BCB13C2C37D100F047FE6FF080011030D8
:1056A00015F093FF0020FFF7BBFB054658B30473CA
:1056B000002101F029FB284608B0BDE8F04101F0C7
:1056C000E9BAEB78012B08BF764B05F104073846A1
:1056D00008BF93F86F4015F07DFE3946B0B106A8BB
:1056E00015F06EFE062205F111010DF1110015F005
:1056F00065FD01238DF81030EB78012B14D01321B8
:10570000404616F08BF908B0BDE8F081204616F04F
:10571000F9FA0722014606A815F050FD072239467E
:1057200004A815F04BFDE7E706A8FFF779FBEB7837
:10573000012B04460AD100F0F7FD6FF08001074607
:10574000103015F042FF384616F08FFC002CD6D0F2
:105750002046B5F8013020F8703B072206A915F065
:105760002DFDB5F81730A4F88630B5F81930A4F837
:105770008C30B5F81B30A4F88E3095F8038084F88F
:1057800003800023B8F1010F237329D1072204A954
:1057900004F1770015F012FD00F0C6FDBFF35B8F3A
:1057A0000369404FBFF35B8F13F4005F6DD10B357E
:1057B00006223D4984F87E80284615F0EFFC03461A
:1057C000062204F17F00002B5CD0294615F0F6FC80
:1057D000D7E9382303F03F031A4301D000F064FFF8
:1057E0000721204601F090FA26B1267301212046B8
:1057F00001F08AFA204616F020FD637B072B3DD18D
:10580000BFF35B8F6368274EBFF35B8F13F4805F3A
:1058100018D1E3781BB196F8D830190712D50221B8
:1058200042F21600FFF73CFC054658B102210C304D
:105830001BF0CFFE238803800022294642F2160087
:10584000FFF7C8FD96F8D930DA0706D50021022304
:1058500000911A46204616F01AF996F8D8309B06A1
:105860000CD50DF10E0103A816F0C0F830B9BDF843
:105870000E20BDF80C10204616F0EBF8204601F083
:1058800009FA40E707F16901A0E7217AC1EBC101FC
:105890000722394404F17E0098E700BFF42C002071
:1058A000BE2D002060000020CF39020000B5C16885
:1058B00089B00B788DF80030B1F80130ADF80130C7
:1058C000CB788DF80330B1F80B30ADF81730B1F864
:1058D0000D30ADF81930B1F80F30ADF81B304B7CFE
:1058E0008DF81D300722043101A815F067FC094925
:1058F00006220DF10B0015F061FC074906220DF19F
:10590000110015F05BFC6846FFF7ACFE09B05DF8CE
:1059100004FB00BFC9000020CF39020038B50321C5
:1059200004460C301BF07CFEE3680578B0F80100FB
:10593000197840F6354398420AD02246FFF718FB03
:1059400035B1044812F068F9BDE83840FFF7C0BC33
:1059500038BD00BF9001002038B5042104460C304A
:105960001BF05EFE4578017840882246FFF700FB79
:1059700035B1044812F050F9BDE83840FFF7A8BC33
:1059800038BD00BF90010020F8B50A4F064600253B
:10599000FB79ECB2A34202D86FF0010009E0C4EB3E
:1059A000C4013944304616F0E2F801350028EFD042
:1059B0002046F8BD6000002070B50D4DB5F8B0412F
:1059C0004FF47A735C434FF4004640F2E730002115
:1059D0004FF47A720023E4FB0601FAF7D1FB02468A
:1059E0000B4605F5C070BDE8704012F069BB00BF02
:1059F000600000202DE9F04188461746054608BBA7
:105A0000272142F22700FFF74BFB0446F0B1272184
:105A10000C301BF0DEFD4146064616F0B0F8394664
:105A20001022F01D15F0CAFB0A49102206F11700DA
:105A300015F0C4FB2A46214642F22700BDE8F0419A
:105A4000FFF7C8BC6FF01500BDE8F0816FF068008B
:105A5000FAE700BFD0010020F0B5044685B0164635
:105A60000D4639B32A49284616F081F810BB294B58
:105A7000C4EBC4002946184416F081F80023CDE990
:105A80000033CDE90233234B173403EB04143EB348
:105A900010226946304615F081FB48B3102231468A
:105AA000204615F08BFB1C4816F06CF8430729D4F0
:105AB00000201BE0684615F075FCB8B96846FFF792
:105AC00063FF0028F6DA134BC4EBC4071F44694692
:105AD000384616F054F8002DD0D039462846CBE78A
